:020000040800F2
:100000000808002045010008893800089D2E0008D6
:10001000013800082D050008CD3C00080000000054
:10002000000000000000000000000000693B000824
:100030004905000800000000F1390008C53B000830
:100040005F0100085F0100085F0100085F01000810
:100050005F0100085F0100085F0100085F01000800
:100060005F0100084D0500085F0100083105000828
:100070005F0100085F0100083D0500085F010008FE
:100080005F0100085F0100085F0100085F010008D0
:100090005F0100085F0100085F0100085F010008C0
:1000A0005F0100085F0100085F0100085F010008B0
:1000B0005F0100085F0100085F0100085F010008A0
:1000C0005F0100085F0100085F0100085F01000890
:1000D0005F0100085F0100085F0100085F01000880
:1000E0005F0100085F0100085F0100085F01000870
:1000F0005F0100085F0100085F0100085F01000860
:100100005F0100085F0100085F0100085F0100084F
:100110005F0100085F010008CD3B0008D93B0008E3
:100120005F0100085F0100085F0100085F0100082F
:10013000DFF80CD000F0FCF800480047253D00082F
:10014000080800200648804706480047FEE7FEE70B
:10015000FEE7FEE7FEE7FEE7FEE7FEE7FEE7FEE777
:10016000C93B000831010008F0B480EA0102D40F55
:100170004200B2EB410F02D20246084611464A0045
:1001800042D0C30DDDB2C1F3C752AD1A202D35DA0E
:10019000C1F3160141F4000204B15242C5F1200638
:1001A00002FA06F12A411044B3EBD05F23D0C4B168
:1001B000012DA0EBC35009DCF0BC4FF0004202EA75
:1001C000C352DBB200F5000000F083B8400000F13C
:1001D000807000EBC350A0F1807040EAD1704900FC
:1001E00009E0490841EAC071A0EBC35000F50000E6
:1001F000400800EBC350F0BC00F062B8614201223D
:1002000002EB4101001BF6E7F0BC704781F00041B2
:10021000AAE780F00040A7E780EA010210B502F0EB
:100220000043400022D04A001FD0010E01EB1261B2
:10023000C0F35600C2F3560240F4000042F400023C
:10024000A0FB022000047F39140400D0401C50EAB7
:10025000124001D44000491EC2B20C0604EBD0107B
:10026000401C4008802A02D003E0002010BD20F08E
:100270000100002900DA0020184310BDC10F80EAF8
:10028000E0700844CA079623002100F022B800F06D
:10029000004220F00040C10DC0F3160040F4000001
:1002A0007F2901DA00207047962903DCC1F196010D
:1002B000C84001E096398840002AF4D04042704797
:1002C0000029A8BF7047401C490008BF20F001006A
:1002D000704710B4B0FA80FC00FA0CF050EA010448
:1002E00004BF10BC704749B1CCF1200421FA04F4DA
:1002F00011FA0CF118BF012121430843A3EB0C01B3
:10030000CB1D4FEA00614FEA102042BF002010BC15
:10031000704700EBC35010440029A4BF10BC7047C5
:10032000401C490008BF20F0010010BC70470000CD
:10033000064C074D06E0E06840F0010394E8070032
:1003400098471034AC42F6D3FFF7F6FE883F00081A
:10035000A83F0008B0B5044600688168C90709D005
:10036000816821F00101816000F00EFF2168896839
:10037000C90701D10020B0BD054602E08068C00772
:10038000F8D000F001FF411B20680329F6D38168F3
:10039000C907F3D0A06A40F01000A062E06A40F004
:1003A0000100E0620120B0BD0146406A826A12F09D
:1003B000500F03D0006A026B084610470168826A3A
:1003C00042F400728262896801F46021B1F5602F05
:1003D00001D1017B11B100F011BA00BF816A21F493
:1003E00080718162816AC90448BF00F007BA816ADE
:1003F00041F00101816200F001BA0000406A816AA7
:1004000041F040018162C16A41F00401C16200F023
:10041000F9B90000406A00F0F3B90000B0B582B04D
:1004200004460020019021688A68D2074FD188686D
:1004300040F00100886040F21000C2F20000006845
:100440004DF68361C4F21B31A0FB0101880C0190C1
:100450000198A0B1019801380190019878B10198F4
:1004600001380190019850B101980138019001982C
:1004700028B101980138019001980028EAD100F0D4
:1004800083FE21688968C9071CD1054603E000BFC7
:100490008068C0071AD100F077FE411B206803294D
:1004A000F6D38168C907F3D1A06A40F01000A062BA
:1004B000E06A40F00100E062002084F8240001209E
:1004C00002B0B0BD002002B0B0BD00BF002002B03D
:1004D000B0BD000005288FBF002040F22401C2F209
:1004E000000131F810007047B0B540F22404C2F2A8
:1004F000000404F10C05284600F032F84FF4FA70BD
:1005000000F018FD284621460622BDE8B04000F064
:1005100099BA0000052884BF0020704701A1085C3B
:10052000FFF7D8BF0001020304050000FEE700004A
:1005300040F2A800C2F2000000F010BB40F2EC0054
:10054000C2F2000000F00ABB70470000082000F073
:100550000BBD0000EFF3108072B600BFFEE7000095
:1005600070B582B004460020019094F82400012860
:1005700004D10225284602B070BD00BF012084F8D6
:1005800024002046FFF7E6FE2046FFF747FF05461A
:10059000002867D1A06A41F2021188430230A062AC
:1005A00040F21000C2F200000668022000F0E4FEF3
:1005B000B6FBF0F0400001900198A0B1019801381D
:1005C0000190019878B1019801380190019850B1DB
:1005D000019801380190019828B1019801380190E3
:1005E00001980028EAD12068816841F00801816003
:1005F00000F0CAFD21688A6812070DD4886840F0AF
:100600000400886000F0C0FD21688968490713D4A0
:1006100001206FF0030121E0064602E08868000730
:10062000ECD500F0B1FD801B21680B28F6D388685B
:100630000007F3D50EE000BF064602E080684007E1
:10064000E6D500F0A1FD811B20680B29F6D3816857
:100650004907F3D5012510206FF01201A26A11405D
:100660000843A062002084F82400284602B070BD30
:1006700010B581B00022009290F82420012A03D105
:100680000221084601B010BD4B680122062B80F8FC
:10069000242017D8D0F800C003EB83035A1F1F2370
:1006A000DCF834E003FA02F40B682EEA040403FADF
:1006B00002F22243CCF83420092B03EB430219D970
:1006C00036E000BFD0F800C00C2B03EB83021DD82E
:1006D000233A1F23DCF830E003FA02F40B682EEA19
:1006E000040403FA02F22243CCF83020092B03EB76
:1006F00043021DD8DCF81030072489689440A343D6
:1007000091401943CCF81010002130E0413A1F23EA
:10071000DCF82CE003FA02F40B682EEA040403FA76
:1007200002F22243CCF82C20092B03EB4302E1D93F
:10073000DCF80CE01E3A0724896894402EEA040491
:10074000914023F001022143102ACCF80C100DD166
:1007500042F20841C4F20101A1F1080294450DD012
:10076000816A41F020018162012100E00021002224
:1007700080F82420084601B010BD00BF0A681202AC
:1007800030D40A68102B42F400020A602CD140F2E7
:100790001001C2F2000109684DF68362C4F21B32F7
:1007A000A1FB0212910C01EB81014900009100991B
:1007B000E1B10099013900910099C9B1009901395D
:1007C00000910099B1B1009901390091009999B156
:1007D000009901390091009900294FF00001E8D1FA
:1007E000C5E700BF0021C2E70021C0E70021BEE746
:1007F0000021BCE70021BAE70021B8E770470000FC
:100800007047000070470000B0B5002800F0B280CB
:100810000446806A20B121688868C0070BD114E0C3
:100820000020E06284F82400204600F0A5F821684A
:100830008868C00709D0886820F00100886000F04F
:10084000A3FC21688A68D20730D1A06AC00644D4CC
:10085000A06A41F2021290430230A062E36981F083
:10086000804080F49E3083F44022104308BF4FF450
:100870000023D4E9010243EA000C531EB3FA83F3C8
:100880005D091346B2F5807F18BF2B02207D257BC2
:1008900001284CEA450030D135B3A56A45F0200562
:1008A000A562E56A45F00105E56226E0054602E03D
:1008B0008868C007C9D000F067FC401B2168032886
:1008C000F6D38868C007F3D0A06A40F01000A06299
:1008D000E06A40F00100E062A06AA06A40F0100007
:1008E000A0620120B0BD00BFD4F818C04EF60005CC
:1008F000CFF6FF7505EB4C352B434D68B2F5807F85
:1009000025F4694543EA05034B608B684FF2FD759A
:10091000CFF6E17503EA050343EA00038B6001D0DB
:10092000012A07D122690023CFF6F07303EB0252AC
:1009300001E000BF0022CB6A23F470031A43CA62AD
:10094000896840F6FE62CFF61F721140814207D1DE
:100950000020E062A16A012262F30101A162B0BD40
:10096000A06A40F0100020F00200A062E06A40F0AF
:100970000100E0620120B0BD2DE9F04186B040F6F3
:1009800000050446C4F20105006805F5E0510027A2
:1009900088420597049703D006B0BDE8F08100BFF8
:1009A00041F21800C4F20200016802AE41F4007185
:1009B000016001684FF0030801F400710191019991
:1009C000016841F010010160016801F0100101911E
:1009D0000199016841F0040101600068314600F0AE
:1009E0000400019001982720029005F50060CDF8E1
:1009F0000C8000F0C5FA3020CDE9020828463146C7
:100A000000F0BEFA40F2A8050820C2F20005C4F2C8
:100A100002004FF48072C5E9000705F11000802143
:100A20004FF480632026CCC02846C5E9027100F04F
:100A3000E3F9002818BFFFF78DFD25626C6206B050
:100A4000BDE8F08170B515460446006842F6000224
:100A5000C4F2010290420E4605D042F20041C4F2B7
:100A60000101884209D142F20440C4F20100006849
:100A700010F4702F1CBF012070BD94F824000128D1
:100A800004BF022070BD012084F824002046FFF737
:100A9000C5FC18B1002184F8241070BD42F2044056
:100AA0002168A26AC4F2010040F601739A4300F57E
:100AB0007F7302F580729942A26243D0A06A20F44B
:100AC0008010A0624868400504D5A06A012262F344
:100AD0000D30A062A26A0020D2044FF0000244BF91
:100AE000E26A22F00602E26284F82400206A40F200
:100AF000A932C0F6000240F2154340F2FD3C00F17D
:100B0000280EC0F60003C0F6000C8EE80C106FF043
:100B100002020A608A682B4642F480728A604C3175
:100B2000324600F0B9F92068816801F460228168DA
:100B3000B2F5602F0CBF41F4A00141F48011816037
:100B4000002070BD026812F4702FB7D0A26A42F480
:100B50008012A26200684005BCD5B6E710B5D0E9A6
:100B60000FE3D0F800C0DEF80020DCF80010DA4017
:100B700054072DD511F004042AD0DCF800108906A2
:100B800005D4DCF8001021F00401CCF80010042298
:100B9000C4F2020202F17C018C454DD940F20841B9
:100BA000C4F202018C4500F0B18040F21C41C4F255
:100BB00002018C4500F0AE8040F23041C4F20201E7
:100BC0008C4540F0AB804FF48061C2F80014F9E02E
:100BD000940747D511F0020444D0DCF800108906D0
:100BE00008D4DCF8001021F00A01CCF80010012133
:100BF00080F821100422C4F2020202F17C018C452B
:100C00004ED940F20841C4F202018C4500F0B68092
:100C100040F21C41C4F202018C4500F0B38040F266
:100C20003041C4F202018C4540F0B0804FF40071B5
:100C3000C2F80014D8E000BF4321C4F202018C4581
:100C400044DD6B21C4F202018C4551DC4421C4F225
:100C500002018C4500F0A6805821C4F202018C45A7
:100C600068E000BF120740F1C58011F0080108BF1D
:100C700010BDDCF8001021F00E01CCF800100121AD
:100C800001FA03F2CEF80420816380F82110016B91
:100C90000022002980F8202040F09680AAE000BFC2
:100CA0004321C4F202018C4548DD6B21C4F20201EC
:100CB0008C4555DC4421C4F202018C4500F088804B
:100CC0005821C4F202018C4576E000BF0821C4F22D
:100CD00002018C456AD01C21C4F202018C456FD000
:100CE0003021C4F202018C4524D14FF4806168E0C8
:100CF0006C21C4F202018C455AD08021C4F2020159
:100D00008C4517D14FF080615BE000BF0421C2F831
:100D1000001457E04021C2F8001453E002F5886344
:100D20004FF480219C4508BF4FF48041C2F8001465
:100D300048E000BF4FF4802143E000BF0821C4F227
:100D400002018C4548D01C21C4F202018C4549D0D7
:100D50003021C4F202018C452ED14FF4007142E0E3
:100D60006C21C4F202018C4538D08021C4F202010A
:100D70008C4521D14FF0007135E000BF0221C2F84F
:100D8000001431E02021C2F800142DE002F5886340
:100D90004FF400319C4508BF4FF40051C2F80014D5
:100DA00022E000BF4FF480410BE000BF042108E0C7
:100DB0004FF4800105E000BF4FF4003113E000BFA5
:100DC00040211160C16AA9B1BDE81040084700BFC9
:100DD0004FF4005107E000BF022104E04FF400117E
:100DE00001E000BF20211160816A0022002980F803
:100DF0002020E9D110BD0000014600284FF001007D
:100E000008BF70472DE9F04740F2000CC4F2020C15
:100E10000A684FF6F8330CF5816ECBF6FD73724518
:100E200038BF03F5806303EB020E4CF6CD43CCF6DE
:100E3000CC43AEFB033E6FF003060CF5806506EA7B
:100E40009E06D1E901A9D1F80C803CBF0025C4F26F
:100E50000205C1E90F56022681F82160166843F6A3
:100E6000F075AE4346EA0A06D1E9045746EA090698
:100E700046EA0806D1E906432E43374327433B435E
:100E8000136000228A6381F8210081F8202000206D
:100E9000BDE8F04770470000F0B590F820C0BCF105
:100EA000010F32D04FF0010E80F820E090F821C001
:100EB000BCF1010F26D14FF0020C80F821C04FF099
:100EC000000CC0F838C0D0E900C4C56AC66BDCF8B5
:100ED0000070102C27F00107CCF80070006C0EFA9F
:100EE00000F070600846CCF8043004BF10460A4693
:100EF000CCF80800CCF80C20DCF8000045B140F03C
:100F00000E000DE0002180F820100220F0BD00BF8F
:100F100020F00400CCF80000DCF8000040F00A00EB
:100F2000CCF80000DCF8000040F00100CCF8000034
:100F30000020F0BDB0B5044600F026F9054640F2A9
:100F40000000C2F200000078611C18BF044400BF1A
:100F500000F01AF9401BA042FAD3B0BD082818BF10
:100F6000704702F06FBD000040F21441C4F201016D
:100F70000A68024214BF08607047FFF7EFBF000025
:100F80002DE9F04F82B0D1F800C0BCF1000F00F0A5
:100F9000F180A0F1804241F60045A2F58432C4F20E
:100FA000010540F2004E4FEAB2240627A842C4F2DF
:100FB000010E08BF0527052C4FF000044FF0010873
:100FC0004FF00F034FF0000A4FF0000B38BF4FEA0D
:100FD000B22700970AE000BFD1F800C00AF1010A69
:100FE0003CFA0AF204F1040400F0C48008FA0AF999
:100FF0001CEA090FF0D04E684FF6FF72C1F21002E2
:10100000964211DC122E55D8DFE806F0340A444827
:10101000545454545454545454545454544C5000F0
:10102000D1F80CB046E000BF4FF6FF72C1F22102CA
:1010300096420FDC0022C1F2110296421AD0002221
:10104000C1F21202964215D00022C1F2210296424C
:1010500010D02FE00022C1F2220296420AD00022D4
:10106000C1F23102964205D00022C1F2320296420C
:1010700020D100BF8A684AB1012A14BFC0F8149079
:10108000C0F810904FF0080B14E000BF4FF0040BB5
:1010900010E000BFCA6802F1080B0BE04FF0000B34
:1010A00008E000BFCA6802F1040B03E0CA6802F15D
:1010B0000C0B00BF22460646BAF1080F24BF203AA7
:1010C0000436376803FA02F5AF430BFA02F23A43EB
:1010D0003260CA79D2067FF57FAF41F21807C4F2B9
:1010E00002073A684FF6084342F001023A603A6854
:1010F000CFF6FF7302F001020192019A2AF0030277
:1011000072440F25D75804F00C06B540AF43009D3C
:1011100005FA06F63743D7504E6840F20C45F20206
:10112000DEF8082054BF22EA090242EA0902CEF89A
:101130000820C4F201052A68B70254BF22EA090256
:1011400042EA09022A60DEF80420B70354BF22EA0B
:10115000090242EA0902CEF804200F23DEF800203B
:10116000F70354BF22EA090242EA0902CEF800203E
:1011700032E700BF02B0BDE8F08F0000002A08BFD0
:10118000090401617047000040F20040C2F2000013
:101190000068704740F2000040F20041C2F20000D7
:1011A000C2F2000100780A6810440860704700002D
:1011B00080B542F20000C4F20200016841F0100163
:1011C0000160032000F0C8F80F2000F005F800F0DF
:1011D00061F8002080BD0000B0B586B041F21C016E
:1011E000C4F202010A68044642F020020A6009685B
:1011F00001A801F0200101910199694600F0AAFAC5
:10120000049D002D18BF012500F0C6FA4DF683613C
:10121000A840C4F21B31A0FB01014FF0FF3000EBEE
:10122000914140F2E02041F20042C2F20000C4F2DB
:10123000000240F2E7330025C0E90021C0E9025373
:101240000561856100F0BAFD054618B1284606B073
:10125000B0BD00BF40F2E020C2F2000000F08EFE00
:1012600005460028F2D1372000F036F80F2C0DD8B3
:10127000372021460022002500F042F840F2040009
:10128000C2F200000460284606B0B0BD0125284621
:1012900006B0B0BD82B041F21800C4F2020001688D
:1012A000022241F001010160016801F00101019198
:1012B0000199416841F080514160406800F08050E0
:1012C000009000980420C4F20100016862F31A61E2
:1012D000016002B070470000002848BF7047C1B2EB
:1012E00000F01F00012202FA00F04EF20012CEF2CE
:1012F000000242EAD10121F00301086070470000BA
:1013000010B54EF60C5CCEF2000CDCF80030C3F3E6
:10131000022E8EF00704042C28BF0424BEF1030320
:101320004FF0FF3E0EFA04F438BF0023A14399406A
:101330000EFA03F39A43114300F00F0200F16043E9
:101340000901043A03F564436244002848BF02F1EE
:101350000C03197010BD00004EF60C51CEF20001C6
:101360000A684FF6FF031A4060F30A2242F08060D9
:1013700040F0FD700860704780B5411E0F294FF0A6
:10138000000039D8DFE801F00C2A3808383838086E
:10139000383838383838383ABDE8804000F024BA58
:1013A00041F20400C4F20200C16940F202320A4074
:1013B000B2F5817F04BF4FF4004080BD01F440715D
:1013C000B1F5407F4CD0B1F5007F51D1006A49F6AC
:1013D0004041800701EAE07080BD00BF00F0F0F9F5
:1013E00041F20401C4F2020109680222C1F3813111
:1013F00002EB4101B0FBF1F080BD00BF41F20401FE
:10140000C4F202010A6851F8040CC0015CBF00205C
:1014100080BDC2F3834017A3185CD20306D440F604
:101420000012C0F23D0250430CE000BF0A6815A351
:10143000C2F340429A5C41F20023C0F27A03B3FB4C
:10144000F2F250430968490248BF80BD4AF6AB2119
:101450004000CAF6AA21A0FB0101480880BD00BFD8
:1014600050F8040C4FF22441800301EAE07080BD83
:10147000002080BD02030405060708090A0B0C0DB5
:101480000E0F1010010200002DE9F04182B0044659
:10149000007841F21C06C007C4F202064AD0306848
:1014A00010F0805808D1306840F0805030603068CB
:1014B00000F080500190019847F20007C4F2000745
:1014C0003868C00512D4386840F480703860FFF77F
:1014D0005BFE05463868C00508D4FFF755FE401B83
:1014E0006428F7D9032002B0BDE8F081706810F4D9
:1014F000407012D0616801F4407188420DD070686C
:1015000040F24042C4F24222012320F440711360B1
:101510000023C007136071602AD17068616820F4ED
:1015200040700843B8F1000F706003D1306820F0BC
:10153000805030602068810707D556F8181CA268D3
:1015400021F44041114346F8181CC00604D4002081
:1015500002B0BDE8F08100BF56F8180C616920F4B4
:101560008000084346F8180C002002B0BDE8F08166
:10157000FFF70AFE054641F2883700BF7068800712
:10158000CBD4FFF701FE401BB8424FF00300F5D962
:10159000EBE700002DE9F04381B0002800F08580E2
:1015A00042F20008C4F202080446D8F800000D46D2
:1015B00000F0070088420CD2D8F8000020F00700A5
:1015C0002843C8F80000D8F8000000F00700A8423F
:1015D0006BD1206841F204098107C4F2020917D5D2
:1015E000410705D5D9F8001041F4E061C9F80010B1
:1015F000010705D5D9F8001041F46051C9F8001071
:10160000D9F80010A26821F0F0011143C9F80010C8
:10161000C00741D1D8F8000000F00700A8420CD95B
:10162000D8F8000020F007002843C8F80000D8F8D8
:10163000000000F00700A84237D12068410707D515
:10164000D9F80010E26821F4E0611143C9F80010F4
:10165000000708D5D9F80000216920F4605040EA5D
:10166000C100C9F80000D9F8002002F00C000828D9
:1016700041F20020C0F27A0050D143F63073C2F339
:101680008341C0F60003595CD2033BD440F60010FE
:10169000C0F23D00484341E0606802280AD00128BA
:1016A0002AD159F8041C890308D4012001B0BDE8EF
:1016B000F08300BF59F8041C8901F6D5D9F8001051
:1016C00021F003010843C9F80000FFF75DFD06465D
:1016D00041F28837D9F80000616800F00C00B0EBE7
:1016E000810F97D0FFF750FD801BB842F2D903203D
:1016F00001B0BDE8F08300BF59F8041C8907D4D5B8
:10170000DCE700BFD9F8002043F62E73C2F3404255
:10171000C0F600039A5C4843B0FBF2F0D9F8001021
:1017200043F61672C1F30311C0F60002515C40F299
:10173000100220FA01F140F20400C2F20000006839
:10174000C2F200021160FFF747FD002001B0BDE8C2
:10175000F08300000F22026041F20402C4F2020290
:10176000136803F003034360136803F0F00383601E
:10177000136803F4E063C36012684FF4E06303EAA4
:10178000D202026142F20000C4F20200006800F0DE
:10179000070008607047000040F2100041F20401A9
:1017A000C2F20000C4F202010068096843F6267222
:1017B000C1F30221C0F60002515CC840704700002E
:1017C00040F2100041F20401C2F20000C4F2020132
:1017D0000068096843F62672C1F3C221C0F6000210
:1017E000515CC8407047000041F2040CC4F2020C86
:1017F000DCF8003003F00C00082841F20020C0F2B1
:101800007A0018BF704743F63071C3F38342C0F6C5
:1018100000018A5CD90305D440F60010C0F23D00F7
:1018200050437047DCF8001043F62E73C1F340417B
:10183000C0F60003595C5043B0FBF1F07047000064
:101840002DE9F04182B0002868D00446007841F2CA
:101850000006C007C4F2020625D0706800F00C0034
:1018600004281BD0706800F00C00082802D17068B2
:10187000C00313D46068002800F06881B0F5A02F81
:1018800000F07C81B0F5803F00F07C81306820F46E
:1018900080303060306820F4802076E1306880034A
:1018A00001D56068D0B32078800718D5706810F033
:1018B0000C0F07D0706800F00C0008286ED170681B
:1018C000C0036BD43068800702D52069012825D178
:1018D0003068616920F0F80040EAC100306020788B
:1018E00000071FD42078400732D4E56995B17068AD
:1018F00000F00C00082840F08F80012D0ED0706899
:10190000216A00F480328A4208D1616A00F47010C2
:10191000884203D1002002B0BDE8F081012002B06E
:10192000BDE8F081A069002862D00020C4F2422006
:101930000121C0F88014FFF727FC0546706A800774
:1019400000F18C80FFF720FC401B0228F6D92AE129
:10195000F06910F0805808D1F06940F08050F061D3
:10196000F06900F080500090009847F20007C4F240
:1019700000073868C00529D4386840F480703860A2
:10198000FFF702FC054600BF3868C0051ED4FFF70C
:10199000FBFB401B6428F7D905E100BF2069002844
:1019A00040F20000C4F2422000F082800121016078
:1019B000FFF7EAFB054600BF306880073FF588AFB8
:1019C000FFF7E2FB401B0228F6D9ECE0E0680028B4
:1019D00000F08080052800F09780012800F09880B2
:1019E000306A20F001003062306A20F0040092E09A
:1019F0000020C4F242200021C0F88014FFF7C4FB8D
:101A0000054600BF706A80077FF56CAFFFF7BCFB2F
:101A1000401B0228F6D9C6E00027C4F24227002066
:101A20003866FFF7B1FB022D05460BD13068800107
:101A300040F1BE80FFF7A8FB401B02284FF00300D7
:101A4000F4D968E7306880017FF564AFFFF79CFB4D
:101A5000401B02284FF00300F4D95CE740F210006D
:101A6000C2F20000006844F6D351C1F26201A0FB4B
:101A70000101480A019000BF00BF0198411E0028E3
:101A800001913FF42FAF00BF0198411E0028019142
:101A90003FF428AF00BF0198411E002801913FF498
:101AA00021AF00BF0198411E00280191E4D119E740
:101AB00000210160FFF768FB054600BF3068800722
:101AC0007FF50DAFFFF760FB401B02284FF00300CE
:101AD000F4D920E7306A20F001003062306A20F04B
:101AE00004003062FFF750FB054641F2883700BF23
:101AF000306A800720D5FFF747FB401BB8424FF004
:101B00000300F5D907E700BF306A40F004003062F7
:101B1000306A40F001003062FFF736FB054641F2C3
:101B2000883700BF306A800706D4FFF72DFB401BC3
:101B3000B842F7D937E000BFB8F1000F7FF4D5AE57
:101B4000F06920F08050F061CFE600BF306820F4EB
:101B500080303060306820F480203060FFF714FB64
:101B6000054600BF306880037FF59DAEFFF70CFB94
:101B7000401B64284FF00300F4D9CCE6306840F4F1
:101B800080203060306840F480303060FFF7FCFA2D
:101B9000054600BF306880033FF585AEFFF7F4FAD5
:101BA000401B6428F6D9032002B0BDE8F08100BFD5
:101BB000206AB0F5803F05D17168A26821F4003138
:101BC000114371607168626A21F474111143084312
:101BD000706001203866FFF7D7FA0446306880014C
:101BE0003FF598AEFFF7D0FA001B02284FF0030034
:101BF000F4D990E67047000070470000B0B590F847
:101C00003C20012A04BF0220B0BD01F108053CCDF3
:101C1000D1E900CE23F47C5322F470521A432EF4FF
:101C2000F0431A432CF4E0431A4324F4C0431A430C
:101C30002A43C96922F48042036811435964002190
:101C400080F83C100846B0BD10B590F83C20012A41
:101C50004FF002023FD080F83D200268D2F804E045
:101C6000D2F808C00C682EF07003234340F6FF340E
:101C7000C4F20004A242536010DCB2F1804F1FD0C6
:101C800040F20043C4F200039A4219D040F6000328
:101C9000C4F200039A4213D017E000BF40F600439D
:101CA000C4F200039A420BD043F20043C4F2010392
:101CB0009A4205D042F60043C4F201039A4204D18D
:101CC00049682CF08003194391600121002280F8BB
:101CD0003D1080F83C20104610BD000041B108299D
:101CE00010D0042914BF00F1450200F143020BE0BB
:101CF00090F84220012A1CBF01207047022280F880
:101D0000422013E000F144021278012A1CBF012096
:101D100070470222082907D0042914BF80F8452003
:101D200080F8432002E000BF80F84420006801F002
:101D30000F010422036A02FA01F123EA010202629E
:101D4000026A11430162416C40F6FF32C4F20002A4
:101D500041F400419042416410DCB0F1804F1FD04B
:101D600040F20041C4F20001884219D040F600015F
:101D7000C4F20001884213D019E000BF40F60041D0
:101D8000C4F2000188420BD043F20041C4F20101C9
:101D9000884205D042F60041C4F20101884206D1D2
:101DA000816801F00701062904BF0020704701681F
:101DB00041F001010160002070470000002804BFCD
:101DC0000120704710B5044690F83D0028B9002066
:101DD00084F83C00204600F01FF8022084F83D0003
:101DE0002068211D01F0FEFE012084F8460084F8E1
:101DF0003E0084F83F0084F8400084F8410084F8F5
:101E0000420084F8430084F8440084F8450084F8D4
:101E10003D00002010BD000080B582B0006840F693
:101E2000FF31C4F2000188422ADD42F6FF31C4F2DC
:101E30000101884242DC40F60041C4F200018842C0
:101E40005AD041F20001C4F20001884240F084807F
:101E500041F21C00C4F202000168002241F01001AE
:101E600001600068002100F0100001900198362008
:101E7000FFF746FA362002B0BDE88040FFF72CBAE3
:101E8000B0F1804F48D040F20041C4F200018842D6
:101E900064D040F60001C4F2000188425CD141F2F6
:101EA0001C00C4F20200016841F0040101600068F6
:101EB00000F004000190019802B080BD43F200419F
:101EC000C4F20101884237D042F60041C4F2010158
:101ED000884241D141F21C00C4F2020050F8041CB7
:101EE00041F4006140F8041C50F8040C00F4006058
:101EF0000190019802B080BD41F21C00C4F20200C2
:101F0000016841F008010160006800F008000190DC
:101F1000019802B080BD00BF41F21C00C4F2020073
:101F2000016841F001010160006800F001000190CA
:101F3000019802B080BD00BF41F21C00C4F2020053
:101F400050F8041C41F4005140F8041C50F8040CF3
:101F500000F400500190019802B080BD41F21C00D5
:101F6000C4F20200016841F002010160006800F063
:101F700002000190019802B080BD000090F83D1071
:101F800001291CBF01207047022180F83D10006824
:101F900040F6FF32C168C4F20002904241F00101F4
:101FA000C1600FDCB0F1804F1ED040F20041C4F29E
:101FB0000001884218D040F60001C4F200018842B6
:101FC00012D018E040F60041C4F2000188420BD064
:101FD00043F20041C4F20101884205D042F60041BB
:101FE000C4F20101884206D1816801F00701062987
:101FF00004BF00207047016841F00101016000202A
:102000007047000080B590F83C20012A4FF0020292
:1020100000F0C28080F83D20D0F800C04FF6777203
:10202000DCF8083023EA0202CCF808200B684F2BBA
:1020300028DC1F2B44DD202B45D0302B43D0402BF8
:1020400040F0AC80D1F804E0C968DCF82030DCF85E
:10205000202022F00102CCF82020DCF8182022F009
:10206000F00242EA011123F00A0242EA0E02CCF821
:102070001810CCF82020DCF8081041F0470121F0BE
:10208000300180E06F2B27DDB3F5005F48D0B3F55A
:10209000805F7AD0702B40F08180D1E901E3C9687C
:1020A000DCF8082043EA0E0322F47F4243EA0121D0
:1020B0001143CCF80810DCF8081041F0770162E019
:1020C0000BB1102B6AD1DCF8081021F07001194314
:1020D00041F0070157E000BF502B35D0602B5DD198
:1020E000D1F804E0C968DCF82030DCF8202022F0C8
:1020F0001002CCF82020DCF8182022F4704242EACA
:10210000013123F0A00242EA0E12CCF81810CCF8EC
:102110002020DCF8081041F0670121F0100132E0C6
:10212000D1E901E3C968DCF8082043EA0E0322F490
:102130007F4243EA01211143CCF80810DCF8081073
:1021400041F480411FE000BFD1F804E0C968DCF829
:102150002030DCF8202022F00102CCF82020DCF82E
:10216000182022F0F00242EA011123F00A0242EAAA
:102170000E02CCF81810CCF82020DCF8081041F042
:10218000570121F02001CCF808100022012180F82D
:102190003D10002180F83C10104680BD0122F5E77B
:1021A0007047000070B504460068C5680669B1074D
:1021B00016D515F0020113D06FF002010161012163
:1021C00021778069800703D02046FFF7E9FF05E00B
:1021D000204600F07FFA204600F010FC0020207717
:1021E000700719D515F0040016D020686FF00401AF
:1021F000016102212177806910F4407F04D02046DC
:10220000FFF7CEFF06E000BF204600F063FA20464D
:1022100000F0F4FB00202077300717D515F00800F8
:1022200014D020686FF00801016104212177C06992
:10223000800703D02046FFF7B3FF05E0204600F0FB
:1022400049FA204600F0DAFB00202077F00619D585
:1022500015F0100016D020686FF010010161082100
:102260002177C06910F4407F04D02046FFF798FF23
:1022700006E000BF204600F02DFA204600F0BEFB2D
:1022800000202077F00718BF15F0010002D13006BA
:1022900009D412E020686FF001010161204600F0CE
:1022A00021FC300609D515F0800006D020686FF0BB
:1022B000800101612046FFF79DFC700609D515F0ED
:1022C000400006D020686FF040010161204600F018
:1022D00013FCB00658BF70BD15F0200008D021686F
:1022E0006FF0200220460A61BDE87040FFF784BC11
:1022F00070BD000070B586B0006840F6FF31C4F2D2
:10230000000188424FF00001CDE90411CDE902112E
:102310002EDCB0F1804F6BD040F20041C4F20001DE
:10232000884277D040F60001C4F20001884240F0B4
:10233000D28041F21800C4F202000168022541F087
:1023400008010160006802A900F0080001900198EE
:10235000402002900320059040F60000C4F20100E6
:1023600000F5806420460395FEF70AFE80203BE0DE
:1023700040F60041C4F20001884277D043F20041A8
:10238000C4F20101884200F0898042F60041C4F2A3
:102390000101884240F09F8041F21800C4F202001F
:1023A000016840F6000441F0080101600168C4F2D0
:1023B000010401F00801019101990168022541F031
:1023C00004010160006802A900F004000190019876
:1023D0004FF4604002900320059004F5806003955F
:1023E000FEF7CEFD4FF400600290039505956EE078
:1023F00041F21800C4F20200016841F004010160DA
:102400000068022100F0040001900198032002906E
:1024100003913DE041F21800C4F20200016840F669
:10242000000441F0040101600168C4F2010401F0FC
:102430000401019101990168022541F00801016040
:102440000068032600F0080001900198C020029067
:1024500002A9204603950596FEF792FD0120CDE9DD
:102460000205059604F5806431E000BF41F21800D2
:10247000C4F20200016841F004010160006800F04C
:102480000400019001980C20029002200390032088
:1024900040F600040590C4F2010418E041F218006F
:1024A000C4F20200016841F010010160006800F010
:1024B0001000019001984020029002200390032018
:1024C000059040F60000C4F2010000F5006402A986
:1024D0002046FEF755FD06B070BD0000F0B590F83F
:1024E0003C30012B04BF0220F0BD4FEAB202032AA8
:1024F00000F2EA80DFE802F0023C7AB8026843F2B8
:102500000045146A136A24F0020423F001031362E5
:102510005368D2F818E08E68D1F800C0C4F2010503
:10252000AA4244EA060405D042F60046C4F2010677
:10253000B24205D1CE6824F00C0426F004063443E0
:10254000AA4205D042F60045C4F20105AA4205D1CF
:10255000D1E9055623F440732B4333432EF0730621
:1025600046EA0C0653609661496851631462A5E01F
:10257000026843F20045146A136A24F0200423F031
:10258000100313625368D2F818C08E68D1F800E0C7
:10259000C4F20105AA4244EA061405D042F60046F8
:1025A000C4F20106B24207D1CE686FF0400724F0B2
:1025B000C00407EA06163443AA4205D042F6004595
:1025C000C4F20105AA4206D1D1E9055623F44063BD
:1025D000354343EA85032CF4E64747EA0E27536068
:1025E000976149689163146268E000BF026843F232
:1025F0000045146A136A24F4007423F48073136290
:102600005368D2F81CC08E68D1F800E0C4F201050E
:10261000AA4244EA062405D042F60046C4F2010666
:10262000B24207D1CE6840F2FF47360224F440643C
:10263000BE433443AA4205D042F60045C4F2010528
:10264000AA4206D1D1E9055623F44053354343EA63
:1026500005132CF0730747EA0E075360D7614968EA
:10266000D16314622AE000BF026843F20046D2F848
:1026700020C0136AC4F2010623F480531362536826
:10268000D4690D68D1F808E0B24205D042F60046A0
:10269000C4F20106B24204D14E6923F4804343EAF6
:1026A000861324F4E64646EA05265360D6612CF4E8
:1026B0000057496847EA0E33116413620021002273
:1026C00080F83C200846F0BD0121002280F83C2023
:1026D0000846F0BD70470000002804BF0120704785
:1026E00010B5044690F83D0028B9002084F83C005D
:1026F000204600F01FF8022084F83D002068211DCC
:1027000001F070FA012084F8460084F83E0084F855
:102710003F0084F8400084F8410084F8420084F8C7
:10272000430084F8440084F8450084F83D0000200C
:1027300010BD0000704700002DE9F04190F83C30DA
:10274000012B04BF0220BDE8F0814FEAB202032A48
:1027500000F21C81DFE802F0024690DA036843F2DF
:1027600000461D6A1A6A25F0020522F001021A626B
:102770001A465C6852F818EF8F68D1F800C0C4F2AE
:102780000106B34245EA070505D042F60047C4F208
:102790000107BB4205D1CF6825F00C0527F00407DF
:1027A0003D43B34205D042F60046C4F20106B342AF
:1027B00005D1D1E9056724F4407434433C432EF03D
:1027C000730747EA0C075C609F614F6809695F63A4
:1027D0001D629F6947F008079F619F6927F0040702
:1027E0009F61C9E0036843F200461D6A1A6A25F03A
:1027F000200522F010021A621A46D3F804C052F8DB
:10280000188F8F68D1F800E0C4F20106B34245EAA0
:10281000071505D042F60047C4F20107BB4207D1B5
:10282000CF686FF0400425F0C00504EA0714254383
:10283000B34205D042F60044C4F20104A34206D1DB
:10284000D1E905462CF44067264347EA860C28F474
:10285000E64444EA0E27C3F804C09F614F68096943
:102860009F631D629F6947F400679F619F6927F41A
:1028700080679F617FE000BF036843F200461D6AE6
:102880001A6A25F4007522F480721A621A46D3F887
:1028900004C052F81CEF8F68D1F80080C4F2010622
:1028A000B34245EA072505D042F60047C4F20107C6
:1028B000BB4208D1CF6840F2FF443F0225F4406597
:1028C00027EA04042543B34205D042F60044C4F28B
:1028D0000104A34206D1D1E905462CF44057264312
:1028E00047EA061C2EF0730747EA0807C3F804C03E
:1028F000DF614F680969DF631D62DF6947F0080720
:10290000DF61DF6927F00407DF6135E0036843F228
:102910000047D3F820C01A6AC4F2010722F480529B
:102920001A621A465C6852F81C5FD1F800E08E68A3
:10293000BB4205D042F60047C4F20107BB4204D1B6
:102940004F6924F4804444EA87142CF4005747EA82
:10295000063725F4E64646EA0E265C60DE614E68E0
:1029600009691E641F62DF6947F40067DF61DF6980
:1029700027F48067DF6109021368194311600021A1
:10298000002280F83C200846BDE8F08101210022A9
:1029900080F83C200846BDE8F0810000002804BF14
:1029A0000120704710B5044690F83D0028B900207A
:1029B00084F83C00204600F01FF8022084F83D0017
:1029C0002068211D01F00EF9012084F8460084F8EA
:1029D0003E0084F83F0084F8400084F8410084F809
:1029E000420084F8430084F8440084F8450084F8E9
:1029F0003D00002010BD000070470000704700003F
:102A000041B1082910D0042914BF00F1410200F19E
:102A10003F020BE090F83E20012A1CBF01207047C6
:102A2000022280F83E2013E000F140021278012AD1
:102A30001CBF012070470222082907D0042914BFB7
:102A400080F8412080F83F2002E000BF80F840205D
:102A5000006801F01F010122036A02FA01F123EA72
:102A600001020262026A114340F6FF32C4F2000220
:102A7000904201620EDCB0F1804F25D040F200415F
:102A8000C4F2000188421FD040F60001C4F20001E8
:102A900018E000BF40F60041C4F20001884213D0A4
:102AA00043F20042C4F2010242F600419042C4F2F5
:102AB000010101D088420ED1436C904243F400439F
:102AC000436401D0884206D1816801F007010629DC
:102AD00004BF00207047016841F00101016000203F
:102AE00070470000006841F20041C4F200018842D2
:102AF00018BF7047FEF74EBB70470000002804BFA8
:102B00000120704710B5044690F8410028B9002014
:102B100084F84000204600F063F8242084F8410047
:102B20002068D4E90212C36823F40053C360036928
:102B300023F440531A430261D4E904231143C268C9
:102B4000194341F20C639A431143C1604169A26980
:102B500021F44071114343F60002C4F20102904295
:102B6000416103D0FEF718FE02E000BFFEF728FE29
:102B70006268192148439100B0FBF1F048F21F51FF
:102B8000C5F2EB11A0FB01235A094FF69C73C0F666
:102B9000FF7302FB0300322303EB0010A0FB0101D3
:102BA000F02303EA5113206803EB0212C1F343112F
:102BB00011448160016921F490410161416921F072
:102BC0002A014161C16841F40051C1600020202107
:102BD000606484F8411084F84210606310BD000006
:102BE000F0B585B00446006844F60001C4F2000167
:102BF000002688420496CDE90266019654D043F639
:102C00000001C4F20101884240F08A8041F21800BC
:102C1000C4F20200016840F6000541F48041016001
:102C20000168C4F2010501F4804100910099016836
:102C300001AE41F0040101600068314600F004007B
:102C4000009000984FF40070019002200290032041
:102C500004902846FEF794F94FF480600190002715
:102C600028463146CDE90277FEF78AF940F2EC05B5
:102C70004420C2F20005C4F20200102180224FF469
:102C8000005385E883002846C5E90327C5E9057791
:102C9000EB61FEF7B1F8002818BFFDF75BFCA563F8
:102CA0006C6205B0F0BD00BF41F21800C4F2020032
:102CB000416801AD41F480214160416801F4802107
:102CC00000910099016841F01001016000682946F7
:102CD00000F01000009000984FF4806001900220F6
:102CE00002900320049040F60000C4F2010000F5B9
:102CF00000642046FEF744F94FF40060CDE9010678
:102D0000204629460396FEF73BF90420C4F2010051
:102D1000016841F0E06141F0100121F02001016003
:102D200005B0F0BD2DE9F041044690F8410020289F
:102D30001CBF0220BDE8F0810D4600294FF00100C4
:102D400000F0AA801646002A08BFBDE8F0810020E6
:102D500060642120984684F84100FEF715FAA684A5
:102D6000E684A1680646B1F5805F02D1206900289B
:102D700062D02F460025E08C002861D018F10100B8
:102D800018D0B8F1000F37D1216808E017F8010B0F
:102D90004860E08C0138E084E08C002851D008685D
:102DA000000673D5002FF1D135F8020B00276FF321
:102DB0005F20EDE7216802E00868000609D4086892
:102DC000000606D4086800065CBF08685FEA006079
:102DD000F2D51FB117F8010B05E000BF35F8020B63
:102DE00000276FF35F204860E08C0138E084E08CBE
:102DF0000028E4D125E000BF216800BF0868000674
:102E000008D4FEF7C1F9801B404541D82168C86845
:102E1000F4E700BF17B117F8010B04E035F8020B17
:102E200000276FF35F204860E08C0138E084E08C7D
:102E30000028E3D105E000BF0027E08C00289DD1E9
:102E40002168086840061FD4B8F1000F1ED018F1A1
:102E500001000FD10868400616D40868400613D454
:102E60000868400610D4086840064FF00000F1D50D
:102E70000FE000BFFEF788F9801B404508D82068A6
:102E8000C16800684006F5D5002002E0FEF77CF935
:102E90000320202184F84110BDE8F081FEE7000006
:102EA000B0B584B040F22404C2F2000442F2004102
:102EB000C4F20101204640F80C1F4FF4807100223B
:102EC00001254FF46023C0E9012106210573027535
:102ED000C3610161FDF798FC002818BFFDF73AFBBC
:102EE0000420CDE9010507200C34039001A92046F8
:102EF000FDF7BEFB002818BFFDF72CFB0F2001904B
:102F00000220029001A92046FDF7B2FB002818BF5D
:102F1000FDF720FB052001900320029001A9204627
:102F2000FDF7A6FB002818BFFDF714FB0A2001904F
:102F30000420029001A92046FDF79AFB002818BF43
:102F4000FDF708FB0B2001900520029001A9204607
:102F5000FDF78EFB002818BFFDF7FCFA0C2001904E
:102F60000620029001A92046FDF782FB002818BF29
:102F7000FDF7F0FA04B0B0BD80B582B041F21400A4
:102F8000C4F202000168002241F001010160006802
:102F9000002100F00100019001980B20FEF7B0F92C
:102FA0000B20FEF799F90E2000210022FEF7A8F968
:102FB0000E2002B0BDE88040FEF78EB92DE9F04F3B
:102FC00085B041F21800C4F20200016840F6000B1F
:102FD00041F0100101600168C4F2010B01F0100121
:102FE0000191019901680BF5006741F02001016032
:102FF0000168002201F020010191019901684FF45C
:10300000405441F0040101600168002501F0040111
:1030100001910199016841F00801016000684FF4D5
:10302000405100F00800019001983846FEF7A6F8DC
:1030300058464FF4004100224FF4004AFEF79EF834
:103040000BF5806840464FF442710022FEF796F877
:1030500001AE019401244FF0030938463146CDE911
:103060000245CDF81090FDF78BFF0820019000205D
:10307000C1F22100CDE9020538463146FDF780FF57
:103080004FF46070CDE90105384631460394FDF7F1
:1030900077FF4FF48070CDE901055846314603941F
:1030A000FDF76EFF4FF48050CDE9010558463146DB
:1030B0000395FDF765FF58463146CDE901A4CDE9FA
:1030C0000359FDF75DFF4FF4427001A981E8310219
:1030D00040463146FDF754FF092000210022FEF74B
:1030E0000FF90920FEF7F8F805B0BDE8F08F0000F1
:1030F000B0B596B040F2301042F600420021C2F264
:103100000000C4F2010241F2BF2380251591CDE9F0
:1031100013111191CDE90F11CDE90D11CDE90B116D
:10312000CDE90911CDE90711CDE90511CDE903116B
:10313000CDE90111C0E90021C0E90213C0E9041181
:103140008561FEF73BFE002818BFFDF703FA4FF438
:103150008050129040F23010C2F2000012A9FEF727
:1031600051FF002818BFFDF7F5F940F23010C2F208
:103170000000FFF7B1FA002818BFFDF7EBF940F2A5
:103180003010C2F20000FFF709FC002818BFFDF75D
:10319000E1F940F230100024C2F2000010A9CDE99C
:1031A0001044FEF751FD002818BFFDF7D3F9302079
:1031B00009904FF4FA70CDE90A04CDE90C44CDE949
:1031C0000E4440F23014C2F2000409A92046002245
:1031D000FFF784F9002818BFFDF7BCF92068042226
:1031E000816941F0080181611020099009A92046F8
:1031F000FFF774F9002818BFFDF7ACF92068082222
:10320000816941F4006181615020099009A920463B
:10321000FFF764F9002818BFFDF79CF92068002526
:10322000C1690C2241F00801C1616020099009A91F
:1032300020460A95FFF780FA002818BFFDF78AF9A3
:103240004FF40050069040F23010C2F2000001A985
:103250000595CDE90355CDE901550895FEF7CEFC5E
:10326000002818BFFDF776F940F23010C2F20000D6
:10327000FFF740F816B0B0BD10B58EB040F2781030
:103280000021C2F2000042F20F740D91CDE90B1142
:103290000991CDE90711CDE90511CDE90311CDE97A
:1032A00001114FF080428F23C0E902140161802197
:1032B000C0E900238161FEF781FD002818BFFDF7FA
:1032C00049F94FF480500A9040F27810C2F20000A1
:1032D0000AA9FEF797FE002818BFFDF73BF940F258
:1032E0007810C2F20000FFF759FB002818BFFDF765
:1032F00031F940F278100024C2F2000008A9CDE9AB
:103300000844FEF7A1FC002818BFFDF723F9602050
:10331000019040F2EE20CDE9020440F27810C2F2B2
:10332000000001A900220594FFF706FA002818BF43
:10333000FDF710F940F27810C2F2000001A9042252
:10334000FFF7FAF9002818BFFDF704F940F27810EA
:10335000C2F20000FEF7CEFF0EB010BD10B58EB069
:1033600040F2C0100021C2F2000040F2004242F2DE
:103370000F740D91CDE90B110991CDE90711CDE93C
:103380000511CDE90311CDE90111C4F200028F232B
:10339000C0E9021401618021C0E900238161FEF7C8
:1033A0000DFD002818BFFDF7D5F84FF480500A90A6
:1033B00040F2C010C2F200000AA9FEF723FE002866
:1033C00018BFFDF7C7F840F2C010C2F20000FFF7C7
:1033D000E5FA002818BFFDF7BDF840F2C010002440
:1033E000C2F2000008A9CDE90844FEF72DFC002830
:1033F00018BFFDF7AFF86020019040F2EE20CDE954
:10340000020440F2C010C2F2000001A9002205949B
:10341000FFF792F9002818BFFDF79CF840F2C010A2
:10342000C2F2000001A90422FFF786F9002818BFA4
:10343000FDF790F840F2C010C2F2000001A9082286
:10344000FFF77AF9002818BFFDF784F840F2C010A2
:10345000C2F20000FEF74EFF0EB010BD10B58EB0E8
:1034600040F2082040F600020021C2F20000C4F23F
:10347000000241F2BF230D91CDE90B110991CDE975
:103480000711CDE90511CDE90311CDE90111C0E91D
:103490000021C0E90213016180218161FEF78EFCE9
:1034A000002818BFFDF756F84FF480500A9040F2FC
:1034B0000820C2F200000AA9FEF7A4FD002818BFE8
:1034C000FDF748F840F20820C2F20000FFF766FA64
:1034D000002818BFFDF73EF840F208200024C2F291
:1034E000000008A9CDE90844FEF7AEFB002818BF8C
:1034F000FDF730F86020CDE9010440F20820C2F267
:10350000000001A9002203940594FFF715F9002893
:1035100018BFFDF71FF840F20820C2F2000001A911
:103520000422FFF709F9002818BFFDF713F840F24D
:103530000820C2F20000FEF7DDFE0EB010BD000054
:1035400010B58EB040F250200021C2F2000040F6CB
:10355000004242F210740D91CDE90B110991CDE9B1
:103560000711CDE90511CDE90311CDE90111C4F22F
:1035700000028F23C0E9021401618021C0E9002309
:103580008161FEF71BFC002818BFFCF7E3FF4FF436
:1035900080500A9040F25020C2F200000AA9FEF7C3
:1035A00031FD002818BFFCF7D5FF40F25020C2F2D1
:1035B0000000FFF7F3F9002818BFFCF7CBFF40F23B
:1035C00050200024C2F2000008A9CDE90844FEF70B
:1035D0003BFB002818BFFCF7BDFF6020019040F2C4
:1035E000EE20CDE9020440F25020C2F2000001A911
:1035F00008220594FFF7A0F8002818BFFCF7AAFFDF
:1036000040F25020C2F2000001A90C22FFF794F80A
:10361000002818BFFCF79EFF40F25020C2F20000C5
:10362000FEF768FE0EB010BD80B582B040F2982063
:103630000021C2F2000041F200024FF6FF7CCDE90A
:103640000011C4F200024723C0E9021C8021C0E936
:1036500000238161FEF7B2FB002818BFFCF77AFF58
:1036600040F29820C2F200006946FEF7EDFA002809
:1036700018BFFCF76FFF02B080BD000010B596B018
:1036800040F2283043F200420021C2F20000C4F2AE
:10369000010241F2BF231591CDE913111191CDE93A
:1036A0000F11CDE90D11CDE90B11CDE90911CDE9CE
:1036B0000711CDE90511CDE90311CDE90111C0E9EB
:1036C0000021C0E90213C0E904118161FEF776FB15
:1036D000002818BFFCF73EFF4FF48050129040F2D4
:1036E0002830C2F2000012A9FEF78CFC002818BF97
:1036F000FCF730FF40F22830C2F20000FFF74EF92D
:10370000002818BFFCF726FF40F228300024C2F240
:10371000000010A9CDE91044FEF796FA002818BF62
:10372000FCF718FF6020CDE9090440F22830C2F20E
:10373000000009A90022CDE90B44CDE90D440F9406
:10374000FEF7FAFF002818BFFCF704FF00200590E1
:10375000CDE90300CDE901004FF40051089040F29B
:1037600028300691C2F2000001A9FEF747FA0028AE
:1037700018BFFCF7EFFE40F22830C2F20000FEF75F
:10378000B9FD16B010BD000080B540F2703043F6B0
:103790000001C2F20000C4F2010100234FF00C0C42
:1037A0004FF4E13280E80E00C0E90333C0E905C3FD
:1037B000C361FFF7A3F9002808BF80BDBDE88040C2
:1037C000FCF7C8BE80B540F2B83044F60001C2F242
:1037D0000000C4F2000100234FF00C0C4FF4E13262
:1037E00080E80E00C0E90333C0E905C3C361FFF7F9
:1037F00085F9002808BF80BDBDE88040FCF7AABE5F
:10380000FEE700000246002841F20000C4F2010079
:103810004FF4005118BF0122FDF7B0BC012888BF4A
:10382000704770B543F640764FF2600200EB4005FA
:10383000C0F60006B1F57A6FA8BF4FF47A61CFF6F3
:10384000FF7216F8250011F57A6FC8BF0A4691B2CB
:103850000B284FEAD1340ED811B2B1F1FF3F43F635
:103860005871C0F6000151F82000D8BF02F59652F9
:1038700091B200F0ABF806EB850148680989224651
:10388000BDE87040FDF77ABCFEE7000080B540F26D
:10389000600CC2F2000CBCF8001040F2080E4B1C89
:1038A00099B2C2F2000E0229BEF80210ACF8003044
:1038B00014D3A1F5FA5398B29EF800304EF22412B8
:1038C00090429CBF5B428EF8003058B2642200FBED
:1038D00002110020AEF80210ACF8000008B280BD62
:1038E00010B542F61840C4F20100016840F23014ED
:1038F00021F0700101600168C2F2000441F0600132
:103900000160016821F4E0410160016841F4C041B7
:103910000160416821F070014160416841F060013F
:10392000416020460021FEF7D9F920460421FEF728
:10393000D5F920460821FEF7D1F920460C21FFF7E2
:103940005FF840F20824C2F2000420460021FFF78D
:1039500057F820460421FFF753F820460821FFF7C7
:103960004FF820460C21FFF74BF840F22830C2F206
:1039700000000021FFF744F840F27814C2F200047E
:1039800020460021FFF73CF820460421FFF738F8D5
:1039900040F2C014C2F2000420460021FFF730F8C4
:1039A00020460421FFF72CF820460821FFF728F8CD
:1039B00040F25024C2F2000420460821FFF720F80C
:1039C00020460C21BDE81040FFF71AB8002948BF77
:1039D00049420160704700000B2888BF704743F6DA
:1039E0005872C0F6000252F82000FFF7EFBF000047
:1039F0007047000040F2640041F20001C2F2000092
:103A0000C4F20101016040F298210822C2F20001D3
:103A100082800022096802738274C0E90522C0E92D
:103A20000722C0E90922C0E90B2240F2E832C0F2C5
:103A300040628160C0F80E20086840F00100086014
:103A40007047000070B540F26400C2F20000017BD4
:103A5000002211F0FD0F04BF012101738368596A30
:103A60005A62437B012B8BB24FEA53130CBF427354
:103A7000827C7C2B98BF072A04D900218174012104
:103A8000417370BD00EB42039982511C0829817477
:103A900018BF70BDB0F814C0B0F92430C189028AD3
:103AA00063445B1A4FF4FA6C521A03FB0CF393FB5A
:103AB000F2F3B0F926E0A3F57A738386C38AB0F9EE
:103AC0002840058B73445B1A254403FB0CF36D1AE5
:103AD00093FBF2F305FB0CF595FBF2F5A3F57A7376
:103AE000B0F92A60C386A5F57A73458B03877319ED
:103AF000868BB0F92C505B1A2E4403FB0CF3761A1C
:103B000093FBF2F306FB0CF696FBF2F6A3F57A7341
:103B10004387A6F57A738387C38BB0F92E60B0F91B
:103B2000305033445B1A03FB0CF393FBF2F3048C29
:103B3000A3F57A73B0F93260C3872B19458C5B1AF1
:103B40002E44711A03FB0CF301FB0CF193FBF2F30F
:103B500091FBF2F1A3F57A73A1F57A71A0F84030E8
:103B6000A0F8421070BD00007047000040F2620CE7
:103B70004FF6000341F20801C2F2000CCFF6FF73CA
:103B8000C4F201019CF80000CB586FF0540202EA25
:103B90004000C3F3002210440A68042303EA92128F
:103BA00010440A68102303EA5212096810444022A4
:103BB00002EA5101084480F0550101F055008CF8EB
:103BC00000107047704700007047000040F29820D6
:103BD000C2F20000FEF7E6BA40F2E020C2F20000B6
:103BE000FEF7E0BA10B540F6FF3E0368C4F2000EDF
:103BF00043F2004C7045C4F2010C21DCB0F1804F5F
:103C00002CD040F20042C4F20002904226D040F68E
:103C10000002C4F20002904220D0704524DCB0F1D2
:103C2000804F2FD040F20042C4F20002904229D0CF
:103C300040F60002C4F20002904223D026E000BF0A
:103C400040F60042C4F20002904207D0604505D021
:103C500042F60042C4F201029042DED14A6823F0EB
:103C6000700313437045DADD40F60042C4F20002EF
:103C7000904207D0604505D042F60042C4F20102EE
:103C8000904203D1CA6823F44073134323F08002A7
:103C90004B69D1F800E08C681A4360450260C46249
:103CA000C0F828E005D042F60042C4F2010290427A
:103CB00001D109690163012141610169C90708BF97
:103CC00010BD016921F00101016110BDFEE7000096
:103CD0000A23FFF727B8000010B584B0044640F26D
:103CE0001800C2F20000B0F900004FF0FF4101914E
:103CF000FCF7C4FA40F21A01C2F20001B1F9001057
:103D000002900846FCF7BAFA039002A9204608225E
:103D1000FFF7DEFF01A920460422FFF7D9FF04B018
:103D200010BD000096B0FDF743FA00240120CDE954
:103D30001144CDE90F440C9010904FF4E0104FF473
:103D40008031022515900CA80694CDE90444CDE9F4
:103D50000244CDE90D14CDE91351FDF771FD28B1F1
:103D6000EFF3108072B600BFFEE700BF0F20CDE971
:103D700007054FF48060CDE90A0407A802210994E1
:103D8000FDF708FC20B1EFF3108072B6FEE700BF2C
:103D9000022001904FF40040039001A8FDF774FB4E
:103DA00020B1EFF3108072B6FEE700BF40F60004CA
:103DB000C4F20104FFF702F9FFF7DEF8FFF7E4FCB5
:103DC000FFF700FDFFF7CAFAFFF7BAFBFFF746FB64
:103DD000FFF72AFCFFF750FAFFF750FCFFF788F9CE
:103DE000FFF75EF8FFF77CFDFFF704FEFCF77CFBB6
:103DF00040F2180540F20C0840F2620940F6000B50
:103E0000C2F20005C2F20008C2F2000904F5006621
:103E100004F58067C4F2010B0020FCF77BFB2880CF
:103E20000120FCF777FBB5F90010688000B2081A92
:103E3000FCF724FA4FF07C51FCF7EEF948F2000150
:103E4000C4F23B41A860FCF78FF9FCF720FA40F27E
:103E50002A31A8808842A8BF084640F2B221884291
:103E6000D8BF0846A8F80000DBF808004FF42F621E
:103E7000C104C0F3003002EAE17AFFF7C3FCB8F8EE
:103E800000100020A5F806A0FFF7A6FDB5F9061062
:103E90000020FFF7C3FCFFF769FE99F8000000F06F
:103EA0000104FFF7F3FC04FB00F10B20FFF794FD86
:103EB00099F800004FF40041C0F380025846FDF726
:103EC0005DF999F800004FF48051C0F300123046BC
:103ED000FDF754F999F800000821C0F38012384624
:103EE000FDF74CF940F27030C2F20000FFF7F4FE2B
:103EF0000A20FDF71FF88FE702E008C8121F08C16B
:103F0000002AFAD170477047002001E001C1121F5A
:103F1000002AFBD1704700000000000000000102F1
:103F2000030406070809000000000102030401025F
:103F300002030405060708090A0B0C0D0E0F1010EA
:103F400002000000000C0140000100000100000020
:103F5000000C0140000200003C0400403408004016
:103F6000380800403C080040400800403400004051
:103F7000380000403C0C0040400C0040340400403D
:103F800038040040402C0140A83F000800000020F9
:103F900018000000F83E0008C03F0008180000208C
:103FA000F0070000083F00080100000010000000BA
:103FB0000100D20FEE0200000024F4000000000017
:0400000508000131BD
:00000001FF
